{
  "_format": "hh-sol-artifact-1",
  "contractName": "Safe2LinkPlugin",
  "sourceName": "contracts/Safe2LinkPlugin.sol",
  "abi": [
    {
      "inputs": [],
      "stateMutability": "nonpayable",
      "type": "constructor"
    },
    {
      "anonymous": false,
      "inputs": [
        {
          "indexed": true,
          "internalType": "uint256",
          "name": "_index",
          "type": "uint256"
        },
        {
          "indexed": false,
          "internalType": "uint256",
          "name": "_amount",
          "type": "uint256"
        },
        {
          "indexed": true,
          "internalType": "address",
          "name": "_senderAddress",
          "type": "address"
        }
      ],
      "name": "LinkEvent",
      "type": "event"
    },
    {
      "anonymous": false,
      "inputs": [
        {
          "indexed": false,
          "internalType": "string",
          "name": "message",
          "type": "string"
        }
      ],
      "name": "MessageEvent",
      "type": "event"
    },
    {
      "anonymous": false,
      "inputs": [
        {
          "indexed": true,
          "internalType": "bytes32",
          "name": "metadataHash",
          "type": "bytes32"
        },
        {
          "indexed": false,
          "internalType": "bytes",
          "name": "data",
          "type": "bytes"
        }
      ],
      "name": "Metadata",
      "type": "event"
    },
    {
      "anonymous": false,
      "inputs": [
        {
          "indexed": true,
          "internalType": "uint256",
          "name": "_index",
          "type": "uint256"
        },
        {
          "indexed": false,
          "internalType": "uint256",
          "name": "_amount",
          "type": "uint256"
        },
        {
          "indexed": true,
          "internalType": "address",
          "name": "_recipientAddress",
          "type": "address"
        }
      ],
      "name": "WithdrawEvent",
      "type": "event"
    },
    {
      "inputs": [],
      "name": "NAME",
      "outputs": [
        {
          "internalType": "string",
          "name": "",
          "type": "string"
        }
      ],
      "stateMutability": "view",
      "type": "function"
    },
    {
      "inputs": [],
      "name": "VERSION",
      "outputs": [
        {
          "internalType": "string",
          "name": "",
          "type": "string"
        }
      ],
      "stateMutability": "view",
      "type": "function"
    },
    {
      "inputs": [
        {
          "internalType": "uint256",
          "name": "_index",
          "type": "uint256"
        },
        {
          "internalType": "address",
          "name": "_recipientAddress",
          "type": "address"
        },
        {
          "internalType": "bytes32",
          "name": "_recipientAddressHash",
          "type": "bytes32"
        },
        {
          "internalType": "bytes",
          "name": "_signature",
          "type": "bytes"
        },
        {
          "internalType": "contract ISafeProtocolManager",
          "name": "manager",
          "type": "address"
        }
      ],
      "name": "claimLink",
      "outputs": [
        {
          "internalType": "bool",
          "name": "",
          "type": "bool"
        }
      ],
      "stateMutability": "nonpayable",
      "type": "function"
    },
    {
      "inputs": [
        {
          "internalType": "address",
          "name": "_tokenAddress",
          "type": "address"
        },
        {
          "internalType": "uint256",
          "name": "_amount",
          "type": "uint256"
        },
        {
          "internalType": "address",
          "name": "_pubKey20",
          "type": "address"
        }
      ],
      "name": "createLink",
      "outputs": [
        {
          "internalType": "uint256",
          "name": "",
          "type": "uint256"
        }
      ],
      "stateMutability": "nonpayable",
      "type": "function"
    },
    {
      "inputs": [],
      "name": "getAllLinks",
      "outputs": [
        {
          "components": [
            {
              "internalType": "address",
              "name": "pubKey20",
              "type": "address"
            },
            {
              "internalType": "uint256",
              "name": "amount",
              "type": "uint256"
            },
            {
              "internalType": "address",
              "name": "tokenAddress",
              "type": "address"
            },
            {
              "internalType": "bool",
              "name": "claimed",
              "type": "bool"
            },
            {
              "internalType": "uint40",
              "name": "timestamp",
              "type": "uint40"
            },
            {
              "internalType": "address",
              "name": "account",
              "type": "address"
            }
          ],
          "internalType": "struct Safe2LinkPlugin.Link[]",
          "name": "",
          "type": "tuple[]"
        }
      ],
      "stateMutability": "view",
      "type": "function"
    },
    {
      "inputs": [
        {
          "internalType": "uint256",
          "name": "_index",
          "type": "uint256"
        }
      ],
      "name": "getLink",
      "outputs": [
        {
          "components": [
            {
              "internalType": "address",
              "name": "pubKey20",
              "type": "address"
            },
            {
              "internalType": "uint256",
              "name": "amount",
              "type": "uint256"
            },
            {
              "internalType": "address",
              "name": "tokenAddress",
              "type": "address"
            },
            {
              "internalType": "bool",
              "name": "claimed",
              "type": "bool"
            },
            {
              "internalType": "uint40",
              "name": "timestamp",
              "type": "uint40"
            },
            {
              "internalType": "address",
              "name": "account",
              "type": "address"
            }
          ],
          "internalType": "struct Safe2LinkPlugin.Link",
          "name": "",
          "type": "tuple"
        }
      ],
      "stateMutability": "view",
      "type": "function"
    },
    {
      "inputs": [],
      "name": "getLinkCount",
      "outputs": [
        {
          "internalType": "uint256",
          "name": "",
          "type": "uint256"
        }
      ],
      "stateMutability": "view",
      "type": "function"
    },
    {
      "inputs": [
        {
          "internalType": "bytes32",
          "name": "messageHash",
          "type": "bytes32"
        },
        {
          "internalType": "bytes",
          "name": "signature",
          "type": "bytes"
        }
      ],
      "name": "getSigner",
      "outputs": [
        {
          "internalType": "address",
          "name": "",
          "type": "address"
        }
      ],
      "stateMutability": "pure",
      "type": "function"
    },
    {
      "inputs": [
        {
          "internalType": "uint256",
          "name": "",
          "type": "uint256"
        }
      ],
      "name": "links",
      "outputs": [
        {
          "internalType": "address",
          "name": "pubKey20",
          "type": "address"
        },
        {
          "internalType": "uint256",
          "name": "amount",
          "type": "uint256"
        },
        {
          "internalType": "address",
          "name": "tokenAddress",
          "type": "address"
        },
        {
          "internalType": "bool",
          "name": "claimed",
          "type": "bool"
        },
        {
          "internalType": "uint40",
          "name": "timestamp",
          "type": "uint40"
        },
        {
          "internalType": "address",
          "name": "account",
          "type": "address"
        }
      ],
      "stateMutability": "view",
      "type": "function"
    },
    {
      "inputs": [],
      "name": "metadataHash",
      "outputs": [
        {
          "internalType": "bytes32",
          "name": "",
          "type": "bytes32"
        }
      ],
      "stateMutability": "view",
      "type": "function"
    },
    {
      "inputs": [],
      "name": "metadataProvider",
      "outputs": [
        {
          "internalType": "uint256",
          "name": "providerType",
          "type": "uint256"
        },
        {
          "internalType": "bytes",
          "name": "location",
          "type": "bytes"
        }
      ],
      "stateMutability": "view",
      "type": "function"
    },
    {
      "inputs": [],
      "name": "name",
      "outputs": [
        {
          "internalType": "string",
          "name": "",
          "type": "string"
        }
      ],
      "stateMutability": "view",
      "type": "function"
    },
    {
      "inputs": [],
      "name": "requiresRootAccess",
      "outputs": [
        {
          "internalType": "bool",
          "name": "",
          "type": "bool"
        }
      ],
      "stateMutability": "view",
      "type": "function"
    },
    {
      "inputs": [
        {
          "internalType": "bytes4",
          "name": "interfaceId",
          "type": "bytes4"
        }
      ],
      "name": "supportsInterface",
      "outputs": [
        {
          "internalType": "bool",
          "name": "",
          "type": "bool"
        }
      ],
      "stateMutability": "view",
      "type": "function"
    },
    {
      "inputs": [
        {
          "internalType": "address",
          "name": "",
          "type": "address"
        },
        {
          "internalType": "address",
          "name": "",
          "type": "address"
        },
        {
          "internalType": "uint256",
          "name": "",
          "type": "uint256"
        }
      ],
      "name": "tokens",
      "outputs": [
        {
          "internalType": "address",
          "name": "",
          "type": "address"
        }
      ],
      "stateMutability": "view",
      "type": "function"
    },
    {
      "inputs": [],
      "name": "version",
      "outputs": [
        {
          "internalType": "string",
          "name": "",
          "type": "string"
        }
      ],
      "stateMutability": "view",
      "type": "function"
    }
  ],
  "bytecode": "0x60c06040523480156200001157600080fd5b506040518060c001604052806040518060400160405280601081526020017f53616665324c696e6b20506c7567696e0000000000000000000000000000000081525081526020016040518060400160405280600581526020017f302e312e3100000000000000000000000000000000000000000000000000000081525081526020016000151581526020016040518060800160405280604d81526020016200332c604d913981526020016040518060400160405280601e81526020017f68747470733a2f2f73616665326c696e6b2e7a656e67756172642e78797a0000815250815260200160001515815250808060000151600090816200011391906200049a565b508060200151600190816200012991906200049a565b50806040015115156080811515815250506200014b81620001ad60201b60201c565b8051906020012060a081815250505060a0517f522c683f99251eea7f3b027592e92a5398e7582983be1f7c0f33715ce025740f6200018f83620001ad60201b60201c565b6040516200019e91906200061b565b60405180910390a25062000801565b6060600080836000015184602001518560400151866060015187608001518860a00151604051602001620001e796959493929190620006ae565b6040516020818303038152906040526040516020016200020a93929190620007c2565b6040516020818303038152906040529050919050565b600081519050919050565b7f4e487b7100000000000000000000000000000000000000000000000000000000600052604160045260246000fd5b7f4e487b7100000000000000000000000000000000000000000000000000000000600052602260045260246000fd5b60006002820490506001821680620002a257607f821691505b602082108103620002b857620002b76200025a565b5b50919050565b60008190508160005260206000209050919050565b60006020601f8301049050919050565b600082821b905092915050565b600060088302620003227fffffffffffffffffffffffffffffffffffffffffffffffffffffffffffffffff82620002e3565b6200032e8683620002e3565b95508019841693508086168417925050509392505050565b6000819050919050565b6000819050919050565b60006200037b620003756200036f8462000346565b62000350565b62000346565b9050919050565b6000819050919050565b62000397836200035a565b620003af620003a68262000382565b848454620002f0565b825550505050565b600090565b620003c6620003b7565b620003d38184846200038c565b505050565b5b81811015620003fb57620003ef600082620003bc565b600181019050620003d9565b5050565b601f8211156200044a576200041481620002be565b6200041f84620002d3565b810160208510156200042f578190505b620004476200043e85620002d3565b830182620003d8565b50505b505050565b600082821c905092915050565b60006200046f600019846008026200044f565b1980831691505092915050565b60006200048a83836200045c565b9150826002028217905092915050565b620004a58262000220565b67ffffffffffffffff811115620004c157620004c06200022b565b5b620004cd825462000289565b620004da828285620003ff565b600060209050601f831160018114620005125760008415620004fd578287015190505b6200050985826200047c565b86555062000579565b601f1984166200052286620002be565b60005b828110156200054c5784890151825560018201915060208501945060208101905062000525565b868310156200056c578489015162000568601f8916826200045c565b8355505b6001600288020188555050505b505050505050565b600081519050919050565b600082825260208201905092915050565b60005b83811015620005bd578082015181840152602081019050620005a0565b60008484015250505050565b6000601f19601f8301169050919050565b6000620005e78262000581565b620005f381856200058c565b9350620006058185602086016200059d565b6200061081620005c9565b840191505092915050565b60006020820190508181036000830152620006378184620005da565b905092915050565b600082825260208201905092915050565b60006200065d8262000220565b6200066981856200063f565b93506200067b8185602086016200059d565b6200068681620005c9565b840191505092915050565b60008115159050919050565b620006a88162000691565b82525050565b600060c0820190508181036000830152620006ca818962000650565b90508181036020830152620006e0818862000650565b9050620006f160408301876200069d565b818103606083015262000705818662000650565b905081810360808301526200071b818562000650565b90506200072c60a08301846200069d565b979650505050505050565b600060ff82169050919050565b60008160f81b9050919050565b60006200075e8262000744565b9050919050565b6200077a620007748262000737565b62000751565b82525050565b600081905092915050565b6000620007988262000581565b620007a4818562000780565b9350620007b68185602086016200059d565b80840191505092915050565b6000620007d0828662000765565b600182019150620007e2828562000765565b600182019150620007f482846200078b565b9150819050949350505050565b60805160a051612b05620008276000396000610c0601526000610be20152612b056000f3fe608060405234801561001057600080fd5b50600436106101005760003560e01c8063be193d2711610097578063f2f09a8e11610066578063f2f09a8e146102bb578063f56e81fa146102eb578063f7b2ec0d1461031b578063ffa1ad741461034b57610100565b8063be193d2714610242578063c5a1d7f014610260578063d3d72d2a1461027e578063ef51b79d1461029d57610100565b806354fd4d50116100d357806354fd4d50146101a157806355c3d97a146101bf578063881d8a40146101ef578063a3f4df7e1461022457610100565b806301ffc9a71461010557806306fdde0314610135578063393b6df31461015357806348d9cb9414610183575b600080fd5b61011f600480360381019061011a919061184d565b610369565b60405161012c9190611895565b60405180910390f35b61013d61043b565b60405161014a9190611940565b60405180910390f35b61016d60048036038101906101689190611998565b6104c9565b60405161017a9190611abf565b60405180910390f35b61018b610655565b6040516101989190611c04565b60405180910390f35b6101a9610804565b6040516101b69190611940565b60405180910390f35b6101d960048036038101906101d49190611c52565b610892565b6040516101e69190611cb4565b60405180910390f35b61020960048036038101906102049190611998565b610add565b60405161021b96959493929190611ced565b60405180910390f35b61022c610ba7565b6040516102399190611940565b60405180910390f35b61024a610be0565b6040516102579190611895565b60405180910390f35b610268610c04565b6040516102759190611d67565b60405180910390f35b610286610c28565b604051610294929190611dd7565b60405180910390f35b6102a5610c67565b6040516102b29190611cb4565b60405180910390f35b6102d560048036038101906102d09190611fa6565b610c74565b6040516102e29190611895565b60405180910390f35b6103056004803603810190610300919061203d565b61106c565b6040516103129190612090565b60405180910390f35b610335600480360381019061033091906120ab565b6110c7565b6040516103429190612090565b60405180910390f35b6103536110e0565b6040516103609190611940565b60405180910390f35b60007f3fce835e000000000000000000000000000000000000000000000000000000007bffffffffffffffffffffffffffffffffffffffffffffffffffffffff1916827bffffffffffffffffffffffffffffffffffffffffffffffffffffffff1916148061043457507f01ffc9a7000000000000000000000000000000000000000000000000000000007bffffffffffffffffffffffffffffffffffffffffffffffffffffffff1916827bffffffffffffffffffffffffffffffffffffffffffffffffffffffff1916145b9050919050565b6000805461044890612136565b80601f016020809104026020016040519081016040528092919081815260200182805461047490612136565b80156104c15780601f10610496576101008083540402835291602001916104c1565b820191906000526020600020905b8154815290600101906020018083116104a457829003601f168201915b505050505081565b6104d1611729565b600382815481106104e5576104e4612167565b5b90600052602060002090600402016040518060c00160405290816000820160009054906101000a900473ffffffffffffffffffffffffffffffffffffffff1673ffffffffffffffffffffffffffffffffffffffff1673ffffffffffffffffffffffffffffffffffffffff168152602001600182015481526020016002820160009054906101000a900473ffffffffffffffffffffffffffffffffffffffff1673ffffffffffffffffffffffffffffffffffffffff1673ffffffffffffffffffffffffffffffffffffffff1681526020016002820160149054906101000a900460ff161515151581526020016002820160159054906101000a900464ffffffffff1664ffffffffff1664ffffffffff1681526020016003820160009054906101000a900473ffffffffffffffffffffffffffffffffffffffff1673ffffffffffffffffffffffffffffffffffffffff1673ffffffffffffffffffffffffffffffffffffffff16815250509050919050565b60606003805480602002602001604051908101604052809291908181526020016000905b828210156107fb57838290600052602060002090600402016040518060c00160405290816000820160009054906101000a900473ffffffffffffffffffffffffffffffffffffffff1673ffffffffffffffffffffffffffffffffffffffff1673ffffffffffffffffffffffffffffffffffffffff168152602001600182015481526020016002820160009054906101000a900473ffffffffffffffffffffffffffffffffffffffff1673ffffffffffffffffffffffffffffffffffffffff1673ffffffffffffffffffffffffffffffffffffffff1681526020016002820160149054906101000a900460ff161515151581526020016002820160159054906101000a900464ffffffffff1664ffffffffff1664ffffffffff1681526020016003820160009054906101000a900473ffffffffffffffffffffffffffffffffffffffff1673ffffffffffffffffffffffffffffffffffffffff1673ffffffffffffffffffffffffffffffffffffffff168152505081526020019060010190610679565b50505050905090565b6001805461081190612136565b80601f016020809104026020016040519081016040528092919081815260200182805461083d90612136565b801561088a5780601f1061085f5761010080835404028352916020019161088a565b820191906000526020600020905b81548152906001019060200180831161086d57829003601f168201915b505050505081565b600060036040518060c001604052808473ffffffffffffffffffffffffffffffffffffffff1681526020018581526020018673ffffffffffffffffffffffffffffffffffffffff1681526020016000151581526020014264ffffffffff1681526020013373ffffffffffffffffffffffffffffffffffffffff16815250908060018154018082558091505060019003906000526020600020906004020160009091909190915060008201518160000160006101000a81548173ffffffffffffffffffffffffffffffffffffffff021916908373ffffffffffffffffffffffffffffffffffffffff1602179055506020820151816001015560408201518160020160006101000a81548173ffffffffffffffffffffffffffffffffffffffff021916908373ffffffffffffffffffffffffffffffffffffffff16021790555060608201518160020160146101000a81548160ff02191690831515021790555060808201518160020160156101000a81548164ffffffffff021916908364ffffffffff16021790555060a08201518160030160006101000a81548173ffffffffffffffffffffffffffffffffffffffff021916908373ffffffffffffffffffffffffffffffffffffffff16021790555050503373ffffffffffffffffffffffffffffffffffffffff166001600380549050610a8b91906121c5565b7fd0b52dbf7f8c29477b6ae9116c857532274475062b33c1f29e0c92f745c1ffbf85604051610aba9190611cb4565b60405180910390a36001600380549050610ad491906121c5565b90509392505050565b60038181548110610aed57600080fd5b90600052602060002090600402016000915090508060000160009054906101000a900473ffffffffffffffffffffffffffffffffffffffff16908060010154908060020160009054906101000a900473ffffffffffffffffffffffffffffffffffffffff16908060020160149054906101000a900460ff16908060020160159054906101000a900464ffffffffff16908060030160009054906101000a900473ffffffffffffffffffffffffffffffffffffffff16905086565b6040518060400160405280601081526020017f53616665324c696e6b20506c7567696e0000000000000000000000000000000081525081565b7f000000000000000000000000000000000000000000000000000000000000000081565b7f000000000000000000000000000000000000000000000000000000000000000081565b60006060600380811115610c3f57610c3e6121f9565b5b915030604051602001610c529190612090565b60405160208183030381529060405290509091565b6000600380549050905090565b60006003805490508610610cbd576040517f08c379a0000000000000000000000000000000000000000000000000000000008152600401610cb490612274565b60405180910390fd5b600060038781548110610cd357610cd2612167565b5b90600052602060002090600402016040518060c00160405290816000820160009054906101000a900473ffffffffffffffffffffffffffffffffffffffff1673ffffffffffffffffffffffffffffffffffffffff1673ffffffffffffffffffffffffffffffffffffffff168152602001600182015481526020016002820160009054906101000a900473ffffffffffffffffffffffffffffffffffffffff1673ffffffffffffffffffffffffffffffffffffffff1673ffffffffffffffffffffffffffffffffffffffff1681526020016002820160149054906101000a900460ff161515151581526020016002820160159054906101000a900464ffffffffff1664ffffffffff1664ffffffffff1681526020016003820160009054906101000a900473ffffffffffffffffffffffffffffffffffffffff1673ffffffffffffffffffffffffffffffffffffffff1673ffffffffffffffffffffffffffffffffffffffff16815250509050600015158160600151151514610e89576040517f08c379a0000000000000000000000000000000000000000000000000000000008152600401610e80906122e0565b60405180910390fd5b610eb886604051602001610e9d9190612348565b60405160208183030381529060405280519060200120611119565b8514610ef9576040517f08c379a0000000000000000000000000000000000000000000000000000000008152600401610ef0906123af565b60405180910390fd5b6000610f0586866110c7565b9050816000015173ffffffffffffffffffffffffffffffffffffffff168173ffffffffffffffffffffffffffffffffffffffff1614610f79576040517f08c379a0000000000000000000000000000000000000000000000000000000008152600401610f709061241b565b60405180910390fd5b8673ffffffffffffffffffffffffffffffffffffffff16887fa62bf33e3860a18b08244c1b59b8aa4920be374252eb534e0ab47d5f7a18ca188460200151604051610fc49190611cb4565b60405180910390a3600160038981548110610fe257610fe1612167565b5b906000526020600020906004020160020160146101000a81548160ff021916908315150217905550600030858460a001518b60405160200161102794939291906124bb565b6040516020818303038152906040528051906020012060001c905061105c858460a0015185604001518b87602001518661114f565b6001935050505095945050505050565b6002602052826000526040600020602052816000526040600020818154811061109457600080fd5b90600052602060002001600092509250509054906101000a900473ffffffffffffffffffffffffffffffffffffffff1681565b6000806110d48484611469565b90508091505092915050565b6040518060400160405280600581526020017f302e312e3100000000000000000000000000000000000000000000000000000081525081565b60007f19457468657265756d205369676e6564204d6573736167653a0a33320000000060005281601c52603c6000209050919050565b6000600167ffffffffffffffff81111561116c5761116b611e3d565b5b6040519080825280602002602001820160405280156111a557816020015b6111926117aa565b81526020019060019003908161118a5790505b509050600073ffffffffffffffffffffffffffffffffffffffff168573ffffffffffffffffffffffffffffffffffffffff160361128c5783816000815181106111f1576111f0612167565b5b60200260200101516000019073ffffffffffffffffffffffffffffffffffffffff16908173ffffffffffffffffffffffffffffffffffffffff1681525050828160008151811061124457611243612167565b5b60200260200101516020018181525050604051806020016040528060008152508160008151811061127857611277612167565b5b6020026020010151604001819052506113b9565b84816000815181106112a1576112a0612167565b5b60200260200101516000019073ffffffffffffffffffffffffffffffffffffffff16908173ffffffffffffffffffffffffffffffffffffffff16815250506000816000815181106112f5576112f4612167565b5b602002602001015160200181815250508383604051602401611318929190612521565b6040516020818303038152906040527fa9059cbb000000000000000000000000000000000000000000000000000000007bffffffffffffffffffffffffffffffffffffffffffffffffffffffff19166020820180517bffffffffffffffffffffffffffffffffffffffffffffffffffffffff8381831617835250505050816000815181106113a9576113a8612167565b5b6020026020010151604001819052505b600060405180606001604052808381526020018481526020016000801b81525090508773ffffffffffffffffffffffffffffffffffffffff16630f99191588836040518363ffffffff1660e01b8152600401611416929190612735565b6000604051808303816000875af1158015611435573d6000803e3d6000fd5b505050506040513d6000823e3d601f19601f8201168201806040525081019061145e91906128bb565b505050505050505050565b60008060006114788585611490565b91509150611485816114e1565b819250505092915050565b60008060418351036114d15760008060006020860151925060408601519150606086015160001a90506114c587828585611647565b945094505050506114da565b60006002915091505b9250929050565b600060048111156114f5576114f46121f9565b5b816004811115611508576115076121f9565b5b03156116445760016004811115611522576115216121f9565b5b816004811115611535576115346121f9565b5b03611575576040517f08c379a000000000000000000000000000000000000000000000000000000000815260040161156c90612950565b60405180910390fd5b60026004811115611589576115886121f9565b5b81600481111561159c5761159b6121f9565b5b036115dc576040517f08c379a00000000000000000000000000000000000000000000000000000000081526004016115d3906129bc565b60405180910390fd5b600360048111156115f0576115ef6121f9565b5b816004811115611603576116026121f9565b5b03611643576040517f08c379a000000000000000000000000000000000000000000000000000000000815260040161163a90612a4e565b60405180910390fd5b5b50565b6000807f7fffffffffffffffffffffffffffffff5d576e7357a4501ddfe92f46681b20a08360001c1115611682576000600391509150611720565b6000600187878787604051600081526020016040526040516116a79493929190612a8a565b6020604051602081039080840390855afa1580156116c9573d6000803e3d6000fd5b505050602060405103519050600073ffffffffffffffffffffffffffffffffffffffff168173ffffffffffffffffffffffffffffffffffffffff160361171757600060019250925050611720565b80600092509250505b94509492505050565b6040518060c00160405280600073ffffffffffffffffffffffffffffffffffffffff16815260200160008152602001600073ffffffffffffffffffffffffffffffffffffffff168152602001600015158152602001600064ffffffffff168152602001600073ffffffffffffffffffffffffffffffffffffffff1681525090565b6040518060600160405280600073ffffffffffffffffffffffffffffffffffffffff16815260200160008152602001606081525090565b6000604051905090565b600080fd5b600080fd5b60007fffffffff0000000000000000000000000000000000000000000000000000000082169050919050565b61182a816117f5565b811461183557600080fd5b50565b60008135905061184781611821565b92915050565b600060208284031215611863576118626117eb565b5b600061187184828501611838565b91505092915050565b60008115159050919050565b61188f8161187a565b82525050565b60006020820190506118aa6000830184611886565b92915050565b600081519050919050565b600082825260208201905092915050565b60005b838110156118ea5780820151818401526020810190506118cf565b60008484015250505050565b6000601f19601f8301169050919050565b6000611912826118b0565b61191c81856118bb565b935061192c8185602086016118cc565b611935816118f6565b840191505092915050565b6000602082019050818103600083015261195a8184611907565b905092915050565b6000819050919050565b61197581611962565b811461198057600080fd5b50565b6000813590506119928161196c565b92915050565b6000602082840312156119ae576119ad6117eb565b5b60006119bc84828501611983565b91505092915050565b600073ffffffffffffffffffffffffffffffffffffffff82169050919050565b60006119f0826119c5565b9050919050565b611a00816119e5565b82525050565b611a0f81611962565b82525050565b611a1e8161187a565b82525050565b600064ffffffffff82169050919050565b611a3e81611a24565b82525050565b60c082016000820151611a5a60008501826119f7565b506020820151611a6d6020850182611a06565b506040820151611a8060408501826119f7565b506060820151611a936060850182611a15565b506080820151611aa66080850182611a35565b5060a0820151611ab960a08501826119f7565b50505050565b600060c082019050611ad46000830184611a44565b92915050565b600081519050919050565b600082825260208201905092915050565b6000819050602082019050919050565b60c082016000820151611b1c60008501826119f7565b506020820151611b2f6020850182611a06565b506040820151611b4260408501826119f7565b506060820151611b556060850182611a15565b506080820151611b686080850182611a35565b5060a0820151611b7b60a08501826119f7565b50505050565b6000611b8d8383611b06565b60c08301905092915050565b6000602082019050919050565b6000611bb182611ada565b611bbb8185611ae5565b9350611bc683611af6565b8060005b83811015611bf7578151611bde8882611b81565b9750611be983611b99565b925050600181019050611bca565b5085935050505092915050565b60006020820190508181036000830152611c1e8184611ba6565b905092915050565b611c2f816119e5565b8114611c3a57600080fd5b50565b600081359050611c4c81611c26565b92915050565b600080600060608486031215611c6b57611c6a6117eb565b5b6000611c7986828701611c3d565b9350506020611c8a86828701611983565b9250506040611c9b86828701611c3d565b9150509250925092565b611cae81611962565b82525050565b6000602082019050611cc96000830184611ca5565b92915050565b611cd8816119e5565b82525050565b611ce781611a24565b82525050565b600060c082019050611d026000830189611ccf565b611d0f6020830188611ca5565b611d1c6040830187611ccf565b611d296060830186611886565b611d366080830185611cde565b611d4360a0830184611ccf565b979650505050505050565b6000819050919050565b611d6181611d4e565b82525050565b6000602082019050611d7c6000830184611d58565b92915050565b600081519050919050565b600082825260208201905092915050565b6000611da982611d82565b611db38185611d8d565b9350611dc38185602086016118cc565b611dcc816118f6565b840191505092915050565b6000604082019050611dec6000830185611ca5565b8181036020830152611dfe8184611d9e565b90509392505050565b611e1081611d4e565b8114611e1b57600080fd5b50565b600081359050611e2d81611e07565b92915050565b600080fd5b600080fd5b7f4e487b7100000000000000000000000000000000000000000000000000000000600052604160045260246000fd5b611e75826118f6565b810181811067ffffffffffffffff82111715611e9457611e93611e3d565b5b80604052505050565b6000611ea76117e1565b9050611eb38282611e6c565b919050565b600067ffffffffffffffff821115611ed357611ed2611e3d565b5b611edc826118f6565b9050602081019050919050565b82818337600083830152505050565b6000611f0b611f0684611eb8565b611e9d565b905082815260208101848484011115611f2757611f26611e38565b5b611f32848285611ee9565b509392505050565b600082601f830112611f4f57611f4e611e33565b5b8135611f5f848260208601611ef8565b91505092915050565b6000611f73826119e5565b9050919050565b611f8381611f68565b8114611f8e57600080fd5b50565b600081359050611fa081611f7a565b92915050565b600080600080600060a08688031215611fc257611fc16117eb565b5b6000611fd088828901611983565b9550506020611fe188828901611c3d565b9450506040611ff288828901611e1e565b935050606086013567ffffffffffffffff811115612013576120126117f0565b5b61201f88828901611f3a565b925050608061203088828901611f91565b9150509295509295909350565b600080600060608486031215612056576120556117eb565b5b600061206486828701611c3d565b935050602061207586828701611c3d565b925050604061208686828701611983565b9150509250925092565b60006020820190506120a56000830184611ccf565b92915050565b600080604083850312156120c2576120c16117eb565b5b60006120d085828601611e1e565b925050602083013567ffffffffffffffff8111156120f1576120f06117f0565b5b6120fd85828601611f3a565b9150509250929050565b7f4e487b7100000000000000000000000000000000000000000000000000000000600052602260045260246000fd5b6000600282049050600182168061214e57607f821691505b60208210810361216157612160612107565b5b50919050565b7f4e487b7100000000000000000000000000000000000000000000000000000000600052603260045260246000fd5b7f4e487b7100000000000000000000000000000000000000000000000000000000600052601160045260246000fd5b60006121d082611962565b91506121db83611962565b92508282039050818111156121f3576121f2612196565b5b92915050565b7f4e487b7100000000000000000000000000000000000000000000000000000000600052602160045260246000fd5b7f4c494e4b20494e44455820444f4553204e4f5420455849535400000000000000600082015250565b600061225e6019836118bb565b915061226982612228565b602082019050919050565b6000602082019050818103600083015261228d81612251565b9050919050565b7f4c494e4b20414c52454144592057495448445241574e00000000000000000000600082015250565b60006122ca6016836118bb565b91506122d582612294565b602082019050919050565b600060208201905081810360008301526122f9816122bd565b9050919050565b60008160601b9050919050565b600061231882612300565b9050919050565b600061232a8261230d565b9050919050565b61234261233d826119e5565b61231f565b82525050565b60006123548284612331565b60148201915081905092915050565b7f48415348455320444f204e4f54204d4154434800000000000000000000000000600082015250565b60006123996013836118bb565b91506123a482612363565b602082019050919050565b600060208201905081810360008301526123c88161238c565b9050919050565b7f57524f4e47205349474e41545552450000000000000000000000000000000000600082015250565b6000612405600f836118bb565b9150612410826123cf565b602082019050919050565b60006020820190508181036000830152612434816123f8565b9050919050565b6000819050919050565b600061246061245b612456846119c5565b61243b565b6119c5565b9050919050565b600061247282612445565b9050919050565b600061248482612467565b9050919050565b61249481612479565b82525050565b60006124a582612467565b9050919050565b6124b58161249a565b82525050565b60006080820190506124d0600083018761248b565b6124dd60208301866124ac565b6124ea6040830185611ccf565b6124f76060830184611ca5565b95945050505050565b600061250b826119c5565b9050919050565b61251b81612500565b82525050565b60006040820190506125366000830185612512565b6125436020830184611ca5565b9392505050565b600061255582612467565b9050919050565b6125658161254a565b82525050565b600081519050919050565b600082825260208201905092915050565b6000819050602082019050919050565b6125a081612500565b82525050565b600082825260208201905092915050565b60006125c282611d82565b6125cc81856125a6565b93506125dc8185602086016118cc565b6125e5816118f6565b840191505092915050565b60006060830160008301516126086000860182612597565b50602083015161261b6020860182611a06565b506040830151848203604086015261263382826125b7565b9150508091505092915050565b600061264c83836125f0565b905092915050565b6000602082019050919050565b600061266c8261256b565b6126768185612576565b93508360208202850161268885612587565b8060005b858110156126c457848403895281516126a58582612640565b94506126b083612654565b925060208a0199505060018101905061268c565b50829750879550505050505092915050565b6126df81611d4e565b82525050565b600060608301600083015184820360008601526127028282612661565b91505060208301516127176020860182611a06565b50604083015161272a60408601826126d6565b508091505092915050565b600060408201905061274a600083018561255c565b818103602083015261275c81846126e5565b90509392505050565b600067ffffffffffffffff8211156127805761277f611e3d565b5b602082029050602081019050919050565b600080fd5b60006127a96127a484611eb8565b611e9d565b9050828152602081018484840111156127c5576127c4611e38565b5b6127d08482856118cc565b509392505050565b600082601f8301126127ed576127ec611e33565b5b81516127fd848260208601612796565b91505092915050565b600061281961281484612765565b611e9d565b9050808382526020820190506020840283018581111561283c5761283b612791565b5b835b8181101561288357805167ffffffffffffffff81111561286157612860611e33565b5b80860161286e89826127d8565b8552602085019450505060208101905061283e565b5050509392505050565b600082601f8301126128a2576128a1611e33565b5b81516128b2848260208601612806565b91505092915050565b6000602082840312156128d1576128d06117eb565b5b600082015167ffffffffffffffff8111156128ef576128ee6117f0565b5b6128fb8482850161288d565b91505092915050565b7f45434453413a20696e76616c6964207369676e61747572650000000000000000600082015250565b600061293a6018836118bb565b915061294582612904565b602082019050919050565b600060208201905081810360008301526129698161292d565b9050919050565b7f45434453413a20696e76616c6964207369676e6174757265206c656e67746800600082015250565b60006129a6601f836118bb565b91506129b182612970565b602082019050919050565b600060208201905081810360008301526129d581612999565b9050919050565b7f45434453413a20696e76616c6964207369676e6174757265202773272076616c60008201527f7565000000000000000000000000000000000000000000000000000000000000602082015250565b6000612a386022836118bb565b9150612a43826129dc565b604082019050919050565b60006020820190508181036000830152612a6781612a2b565b9050919050565b600060ff82169050919050565b612a8481612a6e565b82525050565b6000608082019050612a9f6000830187611d58565b612aac6020830186612a7b565b612ab96040830185611d58565b612ac66060830184611d58565b9594505050505056fea264697066735822122037a2ce0442138e02f1858c12d262beb2ffe30e3a5381383f5cb07c044394321f64736f6c6343000813003368747470733a2f2f7062732e7477696d672e636f6d2f70726f66696c655f696d616765732f313733373532383537373532373335373434332f3271345447454d6e5f343030783430302e6a7067",
  "linkReferences": {},
  "deployedLinkReferences": {}
}